S017000055436F6E74726F6C5F4D6F64756C652E7372656312
S11300000C9446000C9458000C9458000C9458001E
S11300100C9458000C9458000C9458000C945800FC
S11300200C9458000C9458000C9478010C945800CB
S11300300C9458000C9458000C9468010C945800CB
S11300400C9444010C9458000C94DE020C940203AA
S11300500C942D030C9458000C9458000C945800E4
S11300600C9458000C9458000C9458000C945800AC
S11300700C9458000C9482010C945A000C947F0048
S11300800C9458000C9458000C94580011241FBE72
S1130090CFEFD0E1DEBFCDBF21E0A0E0B1E001C0F1
S11300A01D92AA34B207E1F70E948C010C9440031C
S11300B00C9400001F920F920FB60F9211242F93ED
S11300C08F939F93EF93FF93E091240181E08E0F30
S11300D08F7020919C0090912501891731F0F0E0F8
S11300E0ED5EFE4F208380932401FF91EF919F9159
S11300F08F912F910F900FBE0F901F9018951F9204
S11301000F920FB60F9211248F939F93EF93FF9347
S11301108091020190912301891761F0E82FF0E0AA
S1130120ED5FFE4F908190939C008F5F8F70809362
S1130130020105C0EAE9F0E080818F7D8083FF91B0
S1130140EF919F918F910F900FBE0F901F90189574
S113015089E1809399001092980088E980939A002D
S1130160089584B3807C84BB85B38F6385BB089575
S1130170989B1AC0999B1AC09A9B1AC09B9B1AC041
S11301809C9B1AC09E9B1AC00CC08FE080930001F8
S11301909093010108958A30B8F48F5F8093000131
S11301A0089510920001089591E009C093E007C0FA
S11301B092E005C094E003C095E001C096E0809110
S11301C00001853041F7E1CF08951BBA8DEF8ABB5A
S11301D018BA88EF87BB8FE785BB80EC84BB12BA63
S11301E080EA81BB13B812B881E0809362008EE08C
S11301F08093610083E0809365008BE180936400C9
S113020010BE86E083BF12BE11BE1FBC84E08EBD4B
S11302109BE09DBD9CED9CBD17BC16BC1BBC1ABCD1
S113022019BC18BC109279001092780015BC14BC4B
S113023013BC10928B0010928A00109289001092C5
S11302408800109281001092800010928700109212
S11302508600109285001092840010928300109200
S1130260820010926A001ABE19BE95E097BF80936F
S11302707D001AB810929A0080E888B910BC16B8AC
S11302801DB81092740008951F920F920FB60F922A
S113029011242F933F934F935F936F937F938F9387
S11302A09F93AF93BF93EF93FF930E94B800FF9186
S11302B0EF91BF91AF919F918F917F916F915F91DA
S11302C04F913F912F910F900FBE0F901F90189553
S11302D01F920F920FB60F9211248F938BE08DBD56
S11302E08CED8CBD8F910F900FBE0F901F901895C1
S11302F01F920F920FB60F9211240F900FBE0F9002
S11303001F9018951F920F920FB60F9211240F9001
S11303100FBE0F901F9018950E94E5000E943703AE
S11303200E94A8000E9495020E94B1002FEF81EE66
S113033094E0215080409040E1F700C000007894A0
S1130340E5E6F0E0A2E6B0E0C39AC398C49AC49884
S1130350C59AC598C69AC698C79AC7988081886076
S113036080838081877F8083808180618083808196
S11303708F7E8083AF9AAF98979A9798D89AD89897
S1130380959A95988C9180618C938C918F7E8C93A7
S1130390DBCF909891988898899885E08A95F1F7B1
S11303A000000895889A85E08A95F1F70000899AFB
S11303B085E08A95F1F70000089527E030E090E0A9
S11303C0899AAC01022E02C0559547950A94E2F72A
S11303D040FF02C0889801C0889A45E04A95F1F729
S11303E00000899845E04A95F1F700002150310951
S11303F038F78898899A85E08A95F1F700008998FA
S113040045E04A95F1F70000899A0895889A85E0B5
S11304108A95F1F70000899885E08A95F1F7000044
S1130420889885E08A95F1F7000008958898899A5C
S113043085E08A95F1F7000089980895CF93C82F35
S11304400E94D2018EE40E94DD010E9416028C2FCC
S11304500E94DD010E9416020E940602CF910895B7
S1130460DF92EF92FF920F931F93CF93DF93D62ED9
S1130470DD0CE82EF12CE701CC0FDD1F182F1695AB
S113048016951695D12FD071DD298C2F807ED82B0F
S11304908D2F0E941E0285E38A95F1F70000812FBB
S11304A080718D2988609C2F907E892B0E941E026A
S11304B095E39A95F1F700008D2F0E941E0285E3C3
S11304C08A95F1F700008701000F111F029512951C
S11304D0107F1027007F1027DD2DD02B8C2F8071EB
S11304E0D82B8D2F0E941E0295E39A95F1F70000F8
S11304F08D2D8860082B8C2F8071802B0E941E020A
S113050085E38A95F1F700008D2F0E941E0287EC87
S113051090E00197F1F700C00000DF91CF911F91A7
S11305200F91FF90EF90DF9008950E94C90180E041
S11305300E941E028FE99FE00197F1F700C00000BE
S113054080E60E941E028FE99FE00197F1F700C048
S1130550000080E40E941E028FE99FE00197F1F7FA
S113056000C0000088E40E941E028FE99FE001970A
S1130570F1F700C0000080E40E941E028FE99FE0B2
S11305800197F1F700C0000060E088E20E943002A9
S113059060E08CE00E94300260E086E00E9430025D
S11305A060E081E00E9430029FEF29EF80E09150EB
S11305B020408040E1F700C0000008951F920F9290
S11305C00FB60F9211242F938F939F93EF93FF9362
S11305D0E091380181E08E0F8F702CB19091390138
S11305E0891731F0F0E0E95DFE4F208380933801F4
S11305F0FF91EF919F918F912F910F900FBE0F90CC
S11306001F9018951F920F920FB60F9211248F937B
S11306109F93EF93FF93809137019091260189175F
S113062059F0E82FF0E0E65CFE4F90819CB98F5FB3
S11306308F708093370108C0559887EE93E0019737
S1130640F1F700C000001A98FF91EF919F918F91EC
S11306500F900FBE0F901F9018951F920F920FB618
S11306600F9211240F900FBE0F901F9018951A9897
S1130670129A89E189B91092900088E98AB908959B
S1070680F894FFCF18
S9030000FC
