S017000055436F6E74726F6C5F4D6F64756C652E7372656312
S11300000C9458000C946A000C946A000C946A00D6
S11300100C946A000C946A000C946A000C946A00B4
S11300200C946A000C946A000C94A0010C946A006D
S11300300C946A000C946A000C9490010C946A006D
S11300400C946C010C946A000C94B9030C94DD03B9
S11300500C9408040C946A000C946A000C946A00D2
S11300600C946A000C946A000C946A000C946A0064
S11300700C946A000C94AA010C946C000C949100EA
S11300800C946A000C946A000C946A0041033103D6
S113009033033503370339033B033D033F03202078
S11300A048656C6C6F2020776F726C6420200000B0
S11300B011241FBECFEFD0E1DEBFCDBF21E0A0E011
S11300C0B1E001C01D92AA34B207E1F70E94B40165
S11300D00C9442040C9400001F920F920FB60F92DE
S11300E011242F938F939F93EF93FF93E091240117
S11300F081E08E0F8F7020919C00909125018917CB
S113010031F0F0E0ED5EFE4F208380932401FF91F7
S1130110EF919F918F912F910F900FBE0F901F9091
S113012018951F920F920FB60F9211248F939F93DD
S1130130EF93FF938091020190912301891761F05D
S1130140E82FF0E0ED5FFE4F908190939C008F5F6D
S11301508F708093020105C0EAE9F0E080818F7D11
S11301608083FF91EF919F918F910F900FBE0F901D
S11301701F901895E091230191E09E0F9F702091AC
S11301800201921759F0F0E0ED5FFE4F80839093E7
S11301902301EAE9F0E0808180628083089589E1A7
S11301A0809399001092980088E980939A000895AA
S11301B084B3807C84BB85B38F6385BB0895989B8F
S11301C01AC0999B1AC09A9B1AC09B9B1AC09C9BED
S11301D01AC09E9B1AC00CC08FE0809300019093BC
S11301E0010108958A30B8F48F5F80930001089567
S11301F010920001089591E009C093E007C092E0D5
S113020005C094E003C095E001C096E08091000130
S1130210853041F7E1CF08951BBA8DEF8ABB18BA38
S113022088EF87BB8FE785BB80EC84BB12BA80EA7A
S113023081BB13B812B881E0809362008EE0809392
S1130240610083E0809365008BE18093640010BEBD
S113025086E083BF12BE11BE1FBC84E08EBD9BE04E
S11302609DBD9CED9CBD17BC16BC1BBC1ABC19BC27
S113027018BC109279001092780099E695BD14BCD0
S113028013BC10928B0010928A0010928900109275
S113029088001092810010928000109287001092C2
S11302A086001092850010928400109283001092B0
S11302B0820010926A001ABE19BE95E097BF80931F
S11302C07D001AB810929A0080E888B910BC16B85C
S11302D01DB81092740008951F920F920FB60F92DA
S11302E011242F933F934F935F936F937F938F9337
S11302F09F93AF93BF93EF93FF930E94DF00FF910F
S1130300EF91BF91AF919F918F917F916F915F9189
S11303104F913F912F910F900FBE0F901F90189502
S11303201F920F920FB60F9211248F938BE08DBD05
S11303308CED8CBD8F910F900FBE0F901F90189570
S11303401F920F920FB60F9211240F900FBE0F90B1
S11303501F9018951F920F920FB60F9211240F90B1
S11303600FBE0F901F9018950E940C010E94240448
S11303700E94CF000E94A9020E94D8002FEF81EEB4
S113038094E0215080409040E1F700C00000789450
S1130390C0E08C2F0E94A5038C2F0E9412048C2F86
S11303A00E94BA002FEF81EE94E0215080409040EB
S11303B0E1F700C00000CF5FECCF90989198889847
S11303C0899885E08A95F1F700000895889A85E078
S11303D08A95F1F70000899A85E08A95F1F7000083
S11303E0089527E030E090E0899AAC01022E02C023
S11303F0559547950A94E2F740FF02C0889801C0DA
S1130400889A45E04A95F1F70000899845E04A95B5
S1130410F1F700002150310938F78898899A85E06E
S11304208A95F1F70000899845E04A95F1F70000B4
S1130430899A0895889A85E08A95F1F70000899849
S113044085E08A95F1F70000889885E08A95F1F7B0
S1130450000008958898899A85E08A95F1F700004C
S113046089980895CF93C82F0E94E6018EE40E94D4
S1130470F1010E942A028C2F0E94F1010E942A029B
S11304800E941A02CF910895DF92EF92FF920F9388
S11304901F93CF93DF93D62EDD0CE82EF12CE701CA
S11304A0CC0FDD1F182F169516951695D12FD071E8
S11304B0DD298C2F807ED82B8D2F0E94320285E37C
S11304C08A95F1F70000812F80718D2988609C2F17
S11304D0907E892B0E94320295E39A95F1F70000F1
S11304E08D2F0E94320285E38A95F1F7000087017F
S11304F0000F111F02951295107F1027007F1027FF
S1130500DD2DD02B8C2F8071D82B8D2F0E943202A1
S113051095E39A95F1F700008D2D8860082B8C2FB8
S11305208071802B0E94320285E38A95F1F70000E6
S11305308D2F0E94320287EC90E00197F1F700C002
S11305400000DF91CF911F910F91FF90EF90DF900A
S113055008950E94DD0180E00E9432028FE99FE04D
S11305600197F1F700C0000080E60E9432028FE993
S11305709FE00197F1F700C0000080E40E9432027E
S11305808FE99FE00197F1F700C0000088E40E9422
S113059032028FE99FE00197F1F700C0000080E488
S11305A00E9432028FE99FE00197F1F700C000003A
S11305B060E088E20E94440260E08CE00E94440211
S11305C060E086E00E94440260E081E00E94440210
S11305D09FEF29EF80E0915020408040E1F700C078
S11305E00000089561E00E9444020895823061F0A1
S11305F018F4813031F010C0833049F0843051F068
S11306000BC08FE7860F08C08FEB860F05C083E908
S1130610860F02C083ED860F60E00E9444020895B5
S1130620CF93DF93EC01FE012491222359F0FC01C6
S1130630849161E00E9444022196CE01FE0124913E
S11306402111F5CFDF91CF91089590E0FC0131970E
S1130650E930F10520F4EA5BFF4F0C942D0480E3AC
S1130660089582E3089583E3089584E3089585E378
S1130670089586E3089587E3089588E3089589E358
S1130680089581E30895AF92BF92CF92DF92EF92E3
S1130690FF920F931F93CF93DF9300D000D0CDB779
S11306A0DEB78C0119821A821B821C82CE0101964C
S11306B07C016C015E0195E0A90EB11C9801ADECC2
S11306C0BCEC0E94330496958795969587959695EC
S11306D087959C01220F331F880F991F880F991F3C
S11306E0880F991F820F931FE02FE81B8E2F0E9403
S11306F02503F70181937F019801ADECBCEC0E94C6
S113070033048C011695079516950795169507954C
S1130710EA15FB0599F68E010B5F1F4FF8018291D4
S11307208F010E94F2020C151D05C1F70F900F9066
S11307300F900F90DF91CF911F910F91FF90EF9049
S1130740DF90CF90BF90AF900895CF93C82F61E012
S113075081E00E94F6028EE990E00E94100361E0BD
S113076082E00E94F6028C2F90E00E944303CF9116
S113077008951F920F920FB60F9211242F938F9307
S11307809F93EF93FF93E091380181E08E0F8F7078
S11307902CB190913901891731F0F0E0E95DFE4FF9
S11307A0208380933801FF91EF919F918F912F9136
S11307B00F900FBE0F901F9018951F920F920FB6B7
S11307C00F9211248F939F93EF93FF93809137019E
S11307D090912601891759F0E82FF0E0E65CFE4F6E
S11307E090819CB98F5F8F708093370108C05598B2
S11307F087EE93E00197F1F700C000001A98FF918B
S1130800EF919F918F910F900FBE0F901F901895AD
S11308101F920F920FB60F9211240F900FBE0F90DC
S11308201F901895E091260191E09E0F9F702091F2
S11308303701921741F0F0E0E65CFE4F808390931D
S113084026011A9A559A08951A98129A89E189B933
S11308501092900088E98AB90895EE0FFF1F059061
S1130860F491E02D0994A29FB001B39FC001A39F0E
S1130870700D811D1124911DB29F700D811D1124D5
S10B0880911D0895F894FFCFC7
S9030000FC
