:100000000C9446000C9458000C9458000C94580022
:100010000C9458000C9458000C9458000C94580000
:100020000C9458000C9458000C94E5000C94580063
:100030000C9458000C9458000C94D5000C94580063
:100040000C94B1000C9458000C94B5020C94D90295
:100050000C9404030C9458000C9458000C94580011
:100060000C9458000C9458000C9458000C945800B0
:100070000C9458000C94EF000C945A000C947F00E0
:100080000C9458000C9458000C94580011241FBE76
:10009000CFEFD0E1DEBFCDBF21E0A0E0B1E001C0F5
:1000A0001D92AA34B207E1F70E9457010C945D0338
:1000B0000C9400001F920F920FB60F9211242F93F1
:1000C0008F939F93EF93FF93E091220181E08E0F36
:1000D0008F7020919C0090912301891731F0F0E0FE
:1000E000EF5EFE4F208380932201FF91EF919F915D
:1000F0008F912F910F900FBE0F901F9018951F9208
:100100000F920FB60F9211248F939F93EF93FF934B
:100110008091000190912101891761F0E82FF0E0B2
:10012000EF5FFE4F908190939C008F5F8F70809364
:10013000000105C0EAE9F0E080818F7D8083FF91B6
:10014000EF919F918F910F900FBE0F901F90189578
:1001500089E1809399001092980088E980939A0031
:1001600008951F920F920FB60F9211242F933F9371
:100170004F935F936F937F938F939F93AF93BF93AF
:10018000EF93FF930E943003FF91EF91BF91AF91E6
:100190009F918F917F916F915F914F913F912F919F
:1001A0000F900FBE0F901F9018951F920F920FB6D1
:1001B0000F9211248F938BE08DBD8CED8CBD8F91B0
:1001C0000F900FBE0F901F9018951F920F920FB6B1
:1001D0000F9211240F900FBE0F901F9018951F9231
:1001E0000F920FB60F9211240F900FBE0F901F9019
:1001F00018951BBA8DEF8ABB18BA88EF87BB8FE7BB
:1002000085BB80EC84BB12BA80EA81BB13B812B8FC
:100210008093620080E58093610083E080936500B5
:100220008BE18093640010BE86E083BF12BE11BED6
:100230001FBC84E08EBD9BE09DBD9CED9CBD17BCAA
:1002400016BC1BBC1ABC19BC18BC109279001092C9
:10025000780015BC14BC13BC10928B0010928A005D
:1002600010928900109288001092810010928000F4
:1002700010928700109286001092850010928400E0
:10028000109283001092820010926A001ABE19BE6A
:1002900095E097BF80937D001AB810929A0080E88D
:1002A00088B910BC16B81DB81092740008950E9449
:1002B000F9000E9420030E94A8000E946C020E9484
:1002C00029038FE39CE90197F1F700C000007894BF
:1002D000F12CC5E6D0E002E610E0C39AC398C49AB8
:1002E000C498C59AC598C69AC698C79AC79888816F
:1002F000886088838881877F8883888180618883FC
:1003000088818F7E8883AF9AAF98F8018081806161
:10031000808380818F7E8083959A9598D89AD8988B
:10032000979A97988F2D0E940E03FFEF21EE84E09D
:10033000F15020408040E1F700C00000F394CDCFA1
:10034000909891988898899885E08A95F1F70000AF
:100350000895889A85E08A95F1F70000899A85E0EA
:100360008A95F1F70000089527E030E090E0899A3F
:10037000AC01022E02C0559547950A94E2F740FF62
:1003800002C0889801C0889A45E04A95F1F70000BC
:10039000899845E04A95F1F700002150310938F776
:1003A0008898899A85E08A95F1F70000899845E058
:1003B0004A95F1F70000899A0895889A85E08A9510
:1003C000F1F70000899885E08A95F1F70000889898
:1003D00085E08A95F1F7000008958898899A85E06C
:1003E0008A95F1F7000089980895CF93C82F0E944D
:1003F000A9018EE40E94B4010E94ED018C2F0E949D
:10040000B4010E94ED010E94DD01CF910895DF92B9
:10041000EF92FF920F931F93CF93DF93D62EDD0CB5
:10042000E82EF12CE701CC0FDD1F182F169516953D
:100430001695D12FD071DD298C2F807ED82B8D2F52
:100440000E94F50185E38A95F1F70000812F807104
:100450008D2988609C2F907E892B0E94F50195E361
:100460009A95F1F700008D2F0E94F50185E38A959A
:10047000F1F700008701000F111F02951295107F00
:100480001027007F1027DD2DD02B8C2F8071D82BCB
:100490008D2F0E94F50195E39A95F1F700008D2DBF
:1004A0008860082B8C2F8071802B0E94F50185E3DA
:1004B0008A95F1F700008D2F0E94F50187EC90E0FE
:1004C0000197F1F700C00000DF91CF911F910F91CC
:1004D000FF90EF90DF9008950E94A00180E00E94BD
:1004E000F5018FE99FE00197F1F700C0000080E679
:1004F0000E94F5018FE99FE00197F1F700C000002D
:1005000080E40E94F5018FE99FE00197F1F700C0B8
:10051000000088E40E94F5018FE99FE00197F1F760
:1005200000C0000080E40E94F5018FE99FE0019780
:10053000F1F700C0000060E088E20E94070260E07E
:100540008CE00E94070260E086E00E94070260E003
:1005500081E00E9407029FEF29EF80E09150204048
:100560008040E1F700C0000008951F920F920FB67F
:100570000F9211242F938F939F93EF93FF93E0910A
:10058000380181E08E0F8F702CB19091390189175D
:1005900031F0F0E0E95DFE4F208380933801FF9158
:1005A000EF919F918F912F910F900FBE0F901F9001
:1005B00018951F920F920FB60F9211248F939F934D
:1005C000EF93FF938091370190912601891759F09D
:1005D000E82FF0E0E65CFE4F90819CB98F5F8F7052
:1005E0008093370108C0559887EE93E00197F1F7A3
:1005F00000C000001A98FF91EF919F918F910F908A
:100600000FBE0F901F9018951F920F920FB60F926A
:1006100011240F900FBE0F901F901895E0912601A6
:1006200091E09E0F9F7020913701921741F0F0E00A
:10063000E65CFE4F8083909326011A9A559A08959E
:100640001A98129A89E189B91092900088E98AB9BA
:10065000089584B3807C84BB85B38F6385BB089584
:10066000989B1AC0999B1AC09A9B1AC09B9B1AC050
:100670009C9B1AC09E9B1AC00CC08FE080932401E3
:100680009093250108958A30B8F48F5F80932401F8
:10069000089510922401089591E009C093E007C0E5
:1006A00092E005C094E003C095E001C096E080911F
:0E06B0002401853041F7E1CF0895F894FFCF83
:00000001FF
