:100000000C9446000C9458000C9458000C94580022
:100010000C9458000C9458000C9458000C94580000
:100020000C9458000C9458000C9403010C94580044
:100030000C9458000C9458000C94F9000C9458003F
:100040000C94D5000C9458000C940F030C943303BB
:100050000C9457030C9458000C9458000C945800BE
:100060000C9458000C9458000C9458000C945800B0
:100070000C9458000C940D010C945F000C948400B7
:100080000C94AD000C9458000C94580011241FBE21
:10009000CFEFD0E1DEBFCDBF21E0A0E0B1E001C0F5
:1000A0001D92AA34B207E1F70E9499010C94B103A2
:1000B0000C94000080E487B985E886B908951F9202
:1000C0000F920FB60F9211242F938F939F93EF935C
:1000D000FF93E09122018E2F8F5F8F7020919C0003
:1000E00090912301891731F0F0E0EF5EFE4F2083FD
:1000F00080932201FF91EF919F918F912F910F900B
:100100000FBE0F901F9018951F920F920FB60F926F
:1001100011248F939F93EF93FF938091000190910F
:100120002101891761F0E82FF0E0EF5FFE4F908129
:1001300090939C008F5F8F708093000105C0EAE967
:10014000F0E080818F7D8083FF91EF919F918F916F
:100150000F900FBE0F901F9018951F920F920FB621
:100160000F9211240F900FBE0F901F901895E091E1
:1001700021019E2F9F5F9F7020910001921759F0DF
:10018000F0E0EF5FFE4F808390932101EAE9F0E019
:10019000808180628083089589E180939900109224
:1001A000980088ED80939A0008951F920F920FB6E1
:1001B0000F9211242F933F934F935F936F937F93ED
:1001C0008F939F93AF93BF93EF93FF930E9484030A
:1001D000FF91EF91BF91AF919F918F917F916F911F
:1001E0005F914F913F912F910F900FBE0F901F90F5
:1001F00018951F920F920FB60F9211240F900FBEF9
:100200000F901F9018951F920F920FB60F92112406
:100210000F900FBE0F901F9018951F920F920FB660
:100220000F9211240F900FBE0F901F9018951BBABC
:100230008DEF8ABB18BA88EF87BB8FE785BB80EC50
:1002400084BB12BA80EA81BB13B812B880936200F3
:1002500080E58093610083E0809365008BE180936B
:10026000640010BE86E083BF12BE11BE1FBC1EBC60
:100270001DBC1CBC17BC16BC1BBC1ABC19BC18BCD2
:10028000109279001092780015BC14BC13BC109227
:100290008B0010928A0010928900109288001092B0
:1002A00081001092800010928700109286001092B8
:1002B00085001092840010928300109282001092A8
:1002C0006A001ABE19BE85E087BF84E080937D0076
:1002D0001AB810929A0080E888B910BC16B81DB8F8
:1002E00010927400089587B3806E87BBC5988BEA1F
:1002F0008FBD89E08EBD1DBC1CBC17BC16BC1BBCD1
:100300001ABC19BC18BC109279001092780008959C
:10031000863039F0873041F0853051F47BBD6ABDBD
:10032000089579BD68BD0895709379006093780051
:1003300008950E9417010E945A000E9474030E94AF
:10034000CC000E94C6020E947D030E9473018FE3CD
:100350009CE90197F1F700C00000789400E010E0FC
:10036000C5E6D0E00F2EF2E6EF2EF12CF02DCC24D6
:10037000C394D12C01C08601C39AC398C49AC4986F
:10038000C59AC598C69AC698C79AC7988881886042
:1003900088838881877F888388818061888388813A
:1003A0008F7E8883AF9AAF98F701808180618083C8
:1003B00080818F7E8083959A9598D89AD898979ABD
:1003C0009798802F0E946203802F0E94B7008FEAC7
:1003D00094E00197F1F700C0000060E273E085E06F
:1003E0000E94880169E170E086E00E9488016CE16A
:1003F00072E087E00E9488010F5F1F4F011594E0B3
:10040000190708F0B8CFB8CF909891988898899834
:1004100085E08A95F1F700000895889A85E08A952D
:10042000F1F70000899A85E08A95F1F700000895B8
:1004300027E030E090E0899AAC01022E02C0559589
:1004400047950A94E2F740FF02C0889801C0889A55
:1004500045E04A95F1F70000899845E04A95F1F7A3
:1004600000002150310938F78898899A85E08A95EB
:10047000F1F70000899845E04A95F1F70000899A64
:100480000895889A85E08A95F1F70000899885E0BB
:100490008A95F1F70000889885E08A95F1F70000C9
:1004A00008958898899A85E08A95F1F700008998DF
:1004B0000895CF93C82F0E940D028EE40E94180267
:1004C0000E9451028C2F0E9418020E9451020E9429
:1004D0004102CF910895DF92EF92FF920F931F9305
:1004E000CF93DF93F62EFF0C082F10E0E801CC0F1E
:1004F000DD1FDC2E90EED922869586958695689430
:10050000EE24E4F8E8221E2D1F291D29812F0E94C8
:10051000590285E38A95F1F70000DF2DD8608D2D13
:100520008D2B8E290E94590295E39A95F1F70000D0
:10053000812F0E94590285E38A95F1F70000029508
:10054000000F007EC071F02AFC2A8F2D0E945902F4
:1005500095E39A95F1F700008D2F8C2B802B0E944C
:10056000590285E38A95F1F700008F2D0E94590208
:1005700087EC90E00197F1F700C00000DF91CF9188
:100580001F910F91FF90EF90DF9008950E94040259
:1005900080E00E9459028FE99FE00197F1F700C0C7
:1005A000000080E60E9459028FE99FE00197F1F771
:1005B00000C0000080E40E9459028FE99FE001978B
:1005C000F1F700C0000088E40E9459028FE99FE023
:1005D0000197F1F700C0000080E40E9459028FE902
:1005E0009FE00197F1F700C0000060E088E20E9400
:1005F0006B0260E08CE00E946B0260E086E00E948B
:100600006B0260E081E00E946B029FEF29EF80E0C7
:10061000915020408040E1F700C0000008951F92F3
:100620000F920FB60F9211242F938F939F93EF93F6
:10063000FF93E09138018E2F8F5F8F702CB19091D6
:100640003901891731F0F0E0E95DFE4F2083809396
:100650003801FF91EF919F918F912F910F900FBED5
:100660000F901F9018951F920F920FB60F921124A2
:100670008F939F93EF93FF93809137019091260181
:10068000891759F0E82FF0E0E65CFE4F90819CB9A5
:100690008F5F8F708093370101C05598FF91EF9164
:1006A0009F918F910F900FBE0F901F9018951F92E2
:1006B0000F920FB60F9211241A980F900FBE0F9041
:1006C0001F901895E09126019E2F9F5F9F702091AB
:1006D0003701921741F0F0E0E65CFE4F8083909383
:1006E00026011A9A559A08951A98129A89E189B999
:1006F0001092900088ED8AB9089584B3807C84BB01
:1007000085B38F6385BB0895989B1AC0999B1AC0C7
:100710009A9B1AC09B9B1AC09C9B1AC09E9B1AC096
:100720000CC08FE0809324019093250108958A30B6
:10073000B8F48F5F809324010895109224010895E6
:1007400091E009C093E007C092E005C094E003C0C7
:1007500095E001C096E080912401853041F7E1CF1A
:060760000895F894FFCF9C
:00000001FF
