S017000055436F6E74726F6C5F4D6F64756C652E7372656312
S11300000C9458000C946A000C946A000C946A00D6
S11300100C946A000C946A000C946A000C946A00B4
S11300200C946A000C946A000C9423010C946A00EA
S11300300C946A000C946A000C9413010C946A00EA
S11300400C94EF000C946A000C94C7030C94EB031B
S11300500C9416040C946A000C946A000C946A00C4
S11300600C946A000C946A000C946A000C946A0064
S11300700C946A000C942D010C9483000C94A80039
S11300800C946A000C946A000C946A004E033E03BC
S1130090400342034403460348034A034C0320201D
S11300A048656C6C6F2020776F726C6420200000B0
S11300B011241FBECFEFD0E1DEBFCDBF21E0A0E011
S11300C0B1E001C01D92AA34B207E1F70E94950184
S11300D00C9484040C94000080E487B985E886B904
S11300E00895806487B98AE68A95F1F700C0369A44
S11300F0349BFECF349A24B185B190E0982F8827A1
S1130100820F911D08951F920F920FB60F92112422
S11301102F938F939F93EF93FF93E091220181E0BC
S11301208E0F8F7020919C0090912301891731F0DC
S1130130F0E0EF5EFE4F208380932201FF91EF9168
S11301409F918F912F910F900FBE0F901F90189534
S11301501F920F920FB60F9211248F939F93EF93D8
S1130160FF938091000190912101891761F0E82F9C
S1130170F0E0EF5FFE4F908190939C008F5F8F7053
S11301808093000105C0EAE9F0E080818F7D8083DF
S1130190FF91EF919F918F910F900FBE0F901F9041
S11301A01895E091210191E09E0F9F70209100012C
S11301B0921759F0F0E0EF5FFE4F80839093210196
S11301C0EAE9F0E0808180628083089589E1809388
S11301D099001092980088E980939A0008951F92DC
S11301E00F920FB60F9211242F933F934F935F9367
S11301F06F937F938F939F93AF93BF93EF93FF93EB
S11302000E944204FF91EF91BF91AF919F918F9112
S11302107F916F915F914F913F912F910F900FBEFE
S11302200F901F9018951F920F920FB60F921124E2
S11302308F938BE08DBD8CED8CBD8F910F900FBE95
S11302400F901F9018951F920F920FB60F921124C2
S11302500F900FBE0F901F9018951F920F920FB61C
S11302600F9211240F900FBE0F901F9018951BBA78
S11302708DEF8ABB18BA88EF87BB8FE785BB80EC0C
S113028084BB12BA80EA81BB13B812B880936200AF
S113029080E58093610083E0809365008BE1809327
S11302A0640010BE86E083BF12BE11BE1FBC84E092
S11302B08EBD9BE09DBD9CED9CBD17BC16BC1BBCBC
S11302C01ABC19BC18BC109279001092780015BCA5
S11302D014BC13BC10928B0010928A0010928900F7
S11302E01092880010928100109280001092870072
S11302F01092860010928500109284001092830060
S11303001092820010926A001ABE19BE95E097BF3F
S113031080937D001AB810929A0080E888B910BCC6
S113032016B81DB81092740008950E9437010E94F7
S11303306C000E9432040E94E6000E94B6020E94F1
S11303403B048FE39CE90197F1F700C00000789427
S1130350C5E6D0E002E610E0C39AC398C49AC498F4
S1130360C59AC598C69AC698C79AC798888188605E
S113037088838881877F8883888180618883888156
S11303808F7E8883AF9AAF98F801808180618083E3
S113039080818F7E8083959A9598D89AD898979AD9
S11303A0979880E00E9471000E94B20381E00E944D
S11303B071000E94200482E00E9471000E94D1001A
S11303C0FFEF21EE84E0F15020408040E1F700C0CF
S11303D00000C2CF909891988898899885E08A9572
S11303E0F1F700000895889A85E08A95F1F70000F6
S11303F0899A85E08A95F1F70000089527E030E0B6
S113040090E0899AAC01022E02C0559547950A9452
S1130410E2F740FF02C0889801C0889A45E04A95F7
S1130420F1F70000899845E04A95F1F70000215062
S1130430310938F78898899A85E08A95F1F70000A0
S1130440899845E04A95F1F70000899A0895889AB9
S113045085E08A95F1F70000899885E08A95F1F79F
S11304600000889885E08A95F1F70000089588983F
S1130470899A85E08A95F1F7000089980895CF93C9
S1130480C82F0E94F3018EE40E94FE010E943702ED
S11304908C2F0E94FE010E9437020E942702CF91F6
S11304A00895DF92EF92FF920F931F93CF93DF9300
S11304B0D62EDD0CE82EF12CE701CC0FDD1F182F12
S11304C0169516951695D12FD071DD298C2F807E27
S11304D0D82B8D2F0E943F0285E38A95F1F7000007
S11304E0812F80718D2988609C2F907E892B0E949A
S11304F03F0295E39A95F1F700008D2F0E943F0289
S113050085E38A95F1F700008701000F111F02951A
S11305101295107F1027007F1027DD2DD02B8C2FF4
S11305208071D82B8D2F0E943F0295E39A95F1F7A5
S113053000008D2D8860082B8C2F8071802B0E94E9
S11305403F0285E38A95F1F700008D2F0E943F0258
S113055087EC90E00197F1F700C00000DF91CF91A4
S11305601F910F91FF90EF90DF9008950E94EA0190
S113057080E00E943F028FE99FE00197F1F700C0FD
S1130580000080E60E943F028FE99FE00197F1F7A7
S113059000C0000080E40E943F028FE99FE00197C1
S11305A0F1F700C0000088E40E943F028FE99FE059
S11305B00197F1F700C0000080E40E943F028FE938
S11305C09FE00197F1F700C0000060E088E20E941C
S11305D0510260E08CE00E94510260E086E00E94DB
S11305E0510260E081E00E9451029FEF29EF80E018
S11305F0915020408040E1F700C00000089561E080
S11306000E9451020895823061F018F4813031F073
S113061010C0833049F0843051F00BC08FE7860F4F
S113062008C08FEB860F05C083E9860F02C083EDF7
S1130630860F60E00E9451020895CF93DF93EC018E
S1130640FE012491222359F0FC01849161E00E946F
S113065051022196CE01FE0124912111F5CFDF91A3
S1130660CF91089590E0FC013197E930F10520F431
S1130670EA5BFF4F0C946F0480E3089582E30895CE
S113068083E3089584E3089585E3089586E3089554
S113069087E3089588E3089589E3089581E308953D
S11306A0AF92BF92CF92DF92EF92FF920F931F937C
S11306B0CF93DF9300D000D0CDB7DEB78C01198281
S11306C01A821B821C82CE0101967C016C015E01A0
S11306D095E0A90EB11C9801ADECBCEC0E94750428
S11306E09695879596958795969587959C01220F63
S11306F0331F880F991F880F991F880F991F820F26
S1130700931FE02FE81B8E2F0E943203F701819381
S11307107F019801ADECBCEC0E9475048C01169528
S113072007951695079516950795EA15FB0599F60D
S11307308E010B5F1F4FF80182918F010E94FF020F
S11307400C151D05C1F70F900F900F900F90DF91BE
S1130750CF911F910F91FF90EF90DF90CF90BF90BA
S1130760AF900895CF93DF93EC0161E081E00E94A4
S113077003038EE990E00E941D0361E082E00E9481
S11307800303CE010E945003DF91CF9108951F927D
S11307900F920FB60F9211242F938F939F93EF9381
S11307A0FF93E091380181E08E0F8F702CB190910E
S11307B03901891731F0F0E0E95DFE4F2083809321
S11307C03801FF91EF919F918F912F910F900FBE60
S11307D00F901F9018951F920F920FB60F9211242D
S11307E08F939F93EF93FF9380913701909126010C
S11307F0891759F0E82FF0E0E65CFE4F90819CB930
S11308008F5F8F708093370108C0559887EE93E00F
S11308100197F1F700C000001A98FF91EF919F91A2
S11308208F910F900FBE0F901F9018951F920F92EB
S11308300FB60F9211240F900FBE0F901F901895B2
S1130840E091260191E09E0F9F702091370192174D
S113085041F0F0E0E65CFE4F8083909326011A9A03
S1130860559A08951A98129A89E189B910929000BC
S113087088E98AB9089584B3807C84BB85B38F6387
S113088085BB0895989B1AC0999B1AC09A9B1AC05D
S11308909B9B1AC09C9B1AC09E9B1AC00CC08FE0E5
S11308A0809324019093250108958A30B8F48F5FD2
S11308B080932401089510922401089591E009C0C1
S11308C093E007C092E005C094E003C095E001C046
S11308D096E080912401853041F7E1CF0895EE0F31
S11308E0FF1F0590F491E02D0994A29FB001B39FDE
S11308F0C001A39F700D811D1124911DB29F700D25
S10F0900811D1124911D0895F894FFCF6F
S9030000FC
