S017000055436F6E74726F6C5F4D6F64756C652E7372656312
S11300000C9446000C9458000C9458000C9458001E
S11300100C9458000C9458000C9458000C945800FC
S11300200C9458000C9458000C94E4000C94580060
S11300300C9458000C9458000C94DA000C9458005A
S11300400C94B6000C9458000C94BC020C94E0027E
S11300500C940B030C9458000C9458000C94580006
S11300600C9458000C9458000C9458000C945800AC
S11300700C9458000C94EE000C945F000C948400D3
S11300800C9458000C9458000C94580011241FBE72
S1130090CFEFD0E1DEBFCDBF21E0A0E0B1E001C0F1
S11300A01D92AA34B207E1F70E9469010C9452032D
S11300B00C94000080E487B985E886B908951F92FE
S11300C00F920FB60F9211242F938F939F93EF9358
S11300D0FF93E091220181E08E0F8F7020919C00AC
S11300E090912301891731F0F0E0EF5EFE4F2083F9
S11300F080932201FF91EF919F918F912F910F9007
S11301000FBE0F901F9018951F920F920FB60F926B
S113011011248F939F93EF93FF938091000190910B
S11301202101891761F0E82FF0E0EF5FFE4F908125
S113013090939C008F5F8F708093000105C0EAE963
S1130140F0E080818F7D8083FF91EF919F918F916B
S11301500F900FBE0F901F90189589E1809399001E
S11301601092980088E980939A0008951F920F9244
S11301700FB60F9211242F933F934F935F936F9376
S11301807F938F939F93AF93BF93EF93FF930E94BB
S11301902503FF91EF91BF91AF919F918F917F9133
S11301A06F915F914F913F912F910F900FBE0F90E0
S11301B01F9018951F920F920FB60F9211240F9053
S11301C00FBE0F901F9018951F920F920FB60F92AB
S11301D011240F900FBE0F901F9018951F920F922D
S11301E00FB60F9211240F900FBE0F901F90189509
S11301F01BBA8DEF8ABB18BA88EF87BB8FE785BB24
S113020080EC84BB12BA80EA81BB13B812B8809325
S1130210620080E58093610083E0809365008BE158
S11302208093640010BE86E083BF12BE11BE1FBC63
S11302301EBC1DBC1CBC17BC16BC1BBC1ABC19BC08
S113024018BC109279001092780015BC14BC13BC31
S113025010928B0010928A001092890010928800EC
S113026010928100109280001092870010928600F4
S113027010928500109284001092830010928200E4
S113028010926A001ABE19BE85E087BF84E080938D
S11302907D001AB810929A0080E888B910BC16B88C
S11302A01DB810927400089587B3806E87BBC598FB
S11302B08BEA8FBD89E08EBD1DBC1CBC17BC16BC6F
S11302C01BBC1ABC19BC18BC10927900109278009F
S11302D008950E94F8000E945A000E9415030E948B
S11302E0AD000E9473020E941E030E9454018FE31A
S11302F09CE90197F1F700C000007894AFE3BCE9F2
S11303001197F1F700C000001BBC1ABC19BC18BC43
S1130310109279001092780081E090E0E8E7F0E034
S113032031E020E002C0832F922FAFE3BCE91197A4
S1130330F1F700C000009BBD8ABD99BD88BD9183C3
S1130340808301968115B4E09B0768F7EECF9098FF
S113035091988898899885E08A95F1F70000089526
S1130360889A85E08A95F1F70000899A85E08A9554
S1130370F1F70000089527E030E090E0899AAC019D
S1130380022E02C0559547950A94E2F740FF02C039
S1130390889801C0889A45E04A95F1F70000899849
S11303A045E04A95F1F700002150310938F7889863
S11303B0899A85E08A95F1F70000899845E04A9585
S11303C0F1F70000899A0895889A85E08A95F1F7F3
S11303D00000899885E08A95F1F70000889885E007
S11303E08A95F1F7000008958898899A85E08A959E
S11303F0F1F7000089980895CF93C82F0E94B001A7
S11304008EE40E94BB010E94F4018C2F0E94BB0168
S11304100E94F4010E94E401CF910895DF92EF92CB
S1130420FF920F931F93CF93DF93D62EDD0CE82E0C
S1130430F12CE701CC0FDD1F182F16951695169594
S1130440D12FD071DD298C2F807ED82B8D2F0E9447
S1130450FC0185E38A95F1F70000812F80718D29D5
S113046088609C2F907E892B0E94FC0195E39A95CD
S1130470F1F700008D2F0E94FC0185E38A95F1F7C6
S113048000008701000F111F02951295107F10279D
S1130490007F1027DD2DD02B8C2F8071D82B8D2F32
S11304A00E94FC0195E39A95F1F700008D2D886078
S11304B0082B8C2F8071802B0E94FC0185E38A9588
S11304C0F1F700008D2F0E94FC0187EC90E001976A
S11304D0F1F700C00000DF91CF911F910F91FF90C1
S11304E0EF90DF9008950E94A70180E00E94FC0134
S11304F08FE99FE00197F1F700C0000080E60E94B9
S1130500FC018FE99FE00197F1F700C0000080E44F
S11305100E94FC018FE99FE00197F1F700C0000001
S113052088E40E94FC018FE99FE00197F1F700C085
S1130530000080E40E94FC018FE99FE00197F1F73D
S113054000C0000060E088E20E940E0260E08CE0DF
S11305500E940E0260E086E00E940E0260E081E0EC
S11305600E940E029FEF29EF80E0915020408040CE
S1130570E1F700C0000008951F920F920FB60F928A
S113058011242F938F939F93EF93FF93E09138015E
S113059081E08E0F8F702CB190913901891731F061
S11305A0F0E0E95DFE4F208380933801FF91EF91E5
S11305B09F918F912F910F900FBE0F901F901895C0
S11305C01F920F920FB60F9211248F939F93EF9364
S11305D0FF938091370190912601891759F0E82FF4
S11305E0F0E0E65CFE4F90819CB98F5F8F70809342
S11305F0370108C0559887EE93E00197F1F700C0E2
S113060000001A98FF91EF919F918F910F900FBE68
S11306100F901F9018951F920F920FB60F921124EE
S11306200F900FBE0F901F9018951A98129A89E197
S113063089B91092900088E98AB9089584B3807CBE
S113064084BB85B38F6385BB0895989B1AC0999B1F
S11306501AC09A9B1AC09B9B1AC09C9B1AC09E9B53
S11306601AC00CC08FE08093240190932501089553
S11306708A30B8F48F5F8093240108951092240186
S1130680089591E009C093E007C092E005C094E0AA
S113069003C095E001C096E080912401853041F7C4
S10B06A0E1CF0895F894FFCFA7
S9030000FC
