S017000055436F6E74726F6C5F4D6F64756C652E7372656312
S11300000C944F000C9461000C9461000C946100FA
S11300100C9461000C9461000C9461000C946100D8
S11300200C9461000C9461000C9417010C94610011
S11300300C9461000C9461000C9407010C94610011
S11300400C94E3000C9461000C94AF030C94D30360
S11300500C94FE030C9461000C9461000C946100F8
S11300600C9461000C9461000C9461000C94610088
S11300700C9461000C9421010C9477000C949C0066
S11300800C9461000C9461000C946100202048657C
S11300906C6C6F2020776F726C6420200000112438
S11300A01FBECFEFD0E1DEBFCDBF21E0A0E0B1E0C5
S11300B001C01D92AA34B207E1F70E9489010C9491
S11300C063040C94000087B94AE64A95F1F700C02E
S11300D0369A349BFECF349A24B135B1932F80E005
S11300E0AC01420F511D9A01842F932F08951F9242
S11300F00F920FB60F9211242F938F939F93EF9328
S1130100FF93E09122018E2F8F5F8F7020919C00CE
S113011090912301891731F0F0E0EF5EFE4F2083C8
S113012080932201FF91EF919F918F912F910F90D6
S11301300FBE0F901F9018951F920F920FB60F923B
S113014011248F939F93EF93FF93809100019091DB
S11301502101891761F0E82FF0E0EF5FFE4F9081F5
S113016090939C008F5F8F708093000105C0EAE933
S1130170F0E080818F7D8083FF91EF919F918F913B
S11301800F900FBE0F901F901895E09121019E2FA4
S11301909F5F9F7020910001921759F0F0E0EF5F8C
S11301A0FE4F808390932101EAE9F0E08081806230
S11301B08083089589E1809399001092980088E9DA
S11301C080939A0008951F920F920FB60F921124F4
S11301D02F933F934F935F936F937F938F939F934B
S11301E0AF93BF93EF93FF930E942A04FF91EF9183
S11301F0BF91AF919F918F917F916F915F914F913B
S11302003F912F910F900FBE0F901F9018951F9242
S11302100F920FB60F9211248F938BE08DBD8CED4E
S11302208CBD8F910F900FBE0F901F9018951F9249
S11302300F920FB60F9211240F900FBE0F901F90C4
S113024018951F920F920FB60F9211240F900FBEA4
S11302500F901F9018951BBA8DEF8ABB18BA88EFC0
S113026087BB8FE785BB80EC84BB12BA80EA81BB75
S113027013B812B88093620080E58093610083E034
S1130280809365008BE18093640010BE86E083BF99
S113029012BE11BE1FBC84E08EBD9BE09DBD9CEDD3
S11302A09CBD17BC16BC1BBC1ABC19BC18BC109254
S11302B079001092780015BC14BC13BC10928B000A
S11302C010928A0010928900109288001092810086
S11302D01092800010928700109286001092850080
S11302E010928400109283001092820010926A008F
S11302F01ABE19BE95E097BF80937D001AB810927C
S11303009A0080E888B910BC16B81DB81092740021
S113031008950E942B010E941A040E94DA000E9490
S11303209E020E9423048FE39CE90197F1F700C029
S113033000007894C5E6D0E002E610E0C39AC398C2
S1130340C49AC498C59AC598C69AC698C79AC798B5
S11303508881886088838881877F88838881806199
S1130360888388818F7E8883AF9AAF98F8018081D3
S11303708061808380818F7E8083959A9598D89AB6
S1130380D898979A979880E00E9463000E949B03F4
S113039081E00E9463000E94080482E00E946300DE
S11303A00E94C500FFEF21EE84E0F1502040804020
S11303B0E1F700C00000C2CF90989198889889987E
S11303C085E08A95F1F700000895889A85E08A957A
S11303D0F1F70000899A85E08A95F1F70000089505
S11303E027E030E090E0899AAC01022E02C05595D6
S11303F047950A94E2F740FF02C0889801C0889AA2
S113040045E04A95F1F70000899845E04A95F1F7EF
S113041000002150310938F78898899A85E08A9537
S1130420F1F70000899845E04A95F1F70000899AB0
S11304300895889A85E08A95F1F70000899885E007
S11304408A95F1F70000889885E08A95F1F7000015
S113045008958898899A85E08A95F1F7000089982B
S11304600895CF93C82F0E94E5018EE40E94F00105
S11304700E9429028C2F0E94F0010E9429020E94EE
S11304801902CF910895DF92EF92FF920F931F9379
S1130490CF93DF93F62EFF0C082F10E0E801CC0F6A
S11304A0DD1FDC2E90EED92286958695869568947C
S11304B0EE24E4F8E8221E2D1F291D29812F0E9415
S11304C0310285E38A95F1F70000DF2DD8608D2D88
S11304D08D2B8E290E94310295E39A95F1F7000045
S11304E0812F0E94310285E38A95F1F7000002957D
S11304F0000F007EC071F02AFC2A8F2D0E94310269
S113050095E39A95F1F700008D2F8C2B802B0E9498
S1130510310285E38A95F1F700008F2D0E943102A4
S113052087EC90E00197F1F700C00000DF91CF91D4
S11305301F910F91FF90EF90DF9008950E94DC01CE
S113054080E00E9431028FE99FE00197F1F700C03B
S1130550000080E60E9431028FE99FE00197F1F7E5
S113056000C0000080E40E9431028FE99FE00197FF
S1130570F1F700C0000088E40E9431028FE99FE097
S11305800197F1F700C0000080E40E9431028FE976
S11305909FE00197F1F700C0000060E088E20E944C
S11305A0430260E08CE00E94430260E086E00E9427
S11305B0430260E081E00E9443029FEF29EF80E064
S11305C0915020408040E1F700C00000089561E0B0
S11305D00E9443020895823061F018F4813089F456
S11305E005C0833049F0843061F409C0862F8158F6
S11305F008C0862F815405C0862F8D5602C0862FD1
S11306008D5260E00E9443020895CF93DF93EC0182
S1130610FE012491222359F0FC01849161E00E949F
S113062043022196CE01FE0124912111F5CFDF91E1
S1130630CF9108958530D9F058F4823091F018F4B0
S1130640813069F41EC0833071F0843041F40DC0F0
S1130650873089F070F0883081F0893081F080E350
S1130660089582E3089583E3089584E3089585E378
S1130670089586E3089587E3089588E3089589E358
S1130680089581E30895CF92DF92EF92FF920F9342
S11306901F93CF93DF9300D000D0CDB7DEB7E82F00
S11306A0392F19821A821B821C82EE24E394F12CC6
S11306B0EC0EFD1E6E0185E0C80ED11C2E2FADEC94
S11306C0BCEC0E9457048C01169507951695079566
S11306D016950795B801660F771FA801440F551F9B
S11306E0440F551F440F551F460F571F8E2F841B51
S11306F00E941A03F70181937F01E02F312FEC143C
S1130700FD04E1F68C810E94E7028B810E94E702DE
S11307108A810E94E70289810E94E7020F900F906C
S11307200F900F90DF91CF911F910F91FF90EF9059
S1130730DF90CF900895CF93C82F61E081E00E94AD
S1130740EB028CE890E00E94050361E082E00E94E5
S1130750EB028C2F90E00E944303CF9108951F92E7
S11307600F920FB60F9211242F938F939F93EF93B1
S1130770FF93E09138018E2F8F5F8F702CB1909191
S11307803901891731F0F0E0E95DFE4F2083809351
S11307903801FF91EF919F918F912F910F900FBE90
S11307A00F901F9018951F920F920FB60F9211245D
S11307B08F939F93EF93FF9380913701909126013C
S11307C0891759F0E82FF0E0E65CFE4F90819CB960
S11307D08F5F8F708093370108C0559887EE93E040
S11307E00197F1F700C000001A98FF91EF919F91D3
S11307F08F910F900FBE0F901F9018951F920F921C
S11308000FB60F9211240F900FBE0F901F901895E2
S1130810E09126019E2F9F5F9F70209137019217D0
S113082041F0F0E0E65CFE4F8083909326011A9A33
S1130830559A08951A98129A89E189B910929000EC
S113084088E98AB9089584B3807C84BB85B38F63B7
S113085085BB0895989B1AC0999B1AC09A9B1AC08D
S11308609B9B1AC09C9B1AC09E9B1AC00CC08FE015
S1130870809324019093250108958A30B8F48F5F02
S113088080932401089510922401089591E009C0F1
S113089093E007C092E005C094E003C095E001C076
S11308A096E080912401853041F7E1CF0895A29F1D
S11308B0B001B39FC001A39F01D0B29F700D811DF1
S10D08C01124911D0895F894FFCF50
S9030000FC
